S01D0000547261666669635F6C696768745F636F6E74726F6C2E7372656371
S11300000C942A000C944E030C9447000C94470063
S11300100C9447000C9447000C9447000C94470040
S11300200C9447000C9447000C9447000C941E0356
S11300300C9447000C9447000C9447000C94470020
S11300400C9447000C9447000C9447000C94470010
S11300500C94470011241FBECFE5D8E0DEBFCDBF0E
S113006010E0A0E6B0E0E6ECFAE002C005900D92E4
S1130070A23AB107D9F720E0A2EAB0E001C01D928C
S1130080AC3AB207E1F70E94D1020C9461050C94DA
S1130090000083E790E00E94C9008093750082E726
S11300A090E00E94C9008093750081E790E00E946F
S11300B0C9008093750080E790E00E94C900809396
S11300C075008FE690E00E94C900809375008EE66B
S11300D090E00E94C900809375008BE690E00E9436
S11300E087008093750082E690E00E948D018093E2
S11300F0750060E081E690E00E94FD048093750045
S113010080E690E00E948004809375000895009733
S113011019F00E949203089580E008950F931F93AD
S1130120CF93DF931F92CDB7DEB7009739F16115F6
S1130130710531F18B01FC012181222381F02130F1
S113014009F5BE016F5F7F4F0E944404998191308D
S113015019F4F801908317C0F801108214C0BE018D
S11301606F5F7F4F0E9444049981911104C091E014
S1130170F801908308C0F801108205C080E003C034
S113018080E001C080E00F90DF91CF911F910F912B
S11301900895CF93DF931F92CDB7DEB70097E9F0B0
S11301A0FC012081922F97708981887F892B922F5F
S11301B09695969596959770990F990F990F877CB8
S11301C0892B26FB222720F9806420FB87F9898369
S11301D0CE0101960E946F0401C080E00F90DF9170
S11301E0CF910895CF93DF931F92CDB7DEB70097D9
S11301F059F1FC012081922F97708981887F892B86
S1130200922F9695969596959770990F990F990FA9
S1130210877C892B26FB992790F9806490FB87F9CA
S1130220898327FB222720F9222341F0213071F40E
S113023061E0CE0101960E94D80309C060E0CE01BE
S113024001960E94D80303C080E001C080E00F90B3
S1130250DF91CF910895CF93DF931F92CDB7DEB78F
S1130260009759F1FC012081922F97708981887F32
S1130270892B922F9695969596959770990F990F2D
S1130280990F877C892B26FB992790F9806490FB32
S113029087F9898327FB222720F9222341F0213083
S11302A071F460E0CE0101960E94D80309C061E0B8
S11302B0CE0101960E94D80303C080E001C080E013
S11302C00F90DF91CF910895CF93DF931F92CDB715
S11302D0DEB70097E9F0FC012081922F97708981A5
S11302E0887F892B922F9695969596959770990F5E
S11302F0990F990F877C892B26FB222720F980648C
S113030020FB87F98983CE0101960E941E0401C057
S113031080E00F90DF91CF9108950F931F93CF93B7
S1130320009779F08C01C0E081E006C0C8018C0F11
S1130330911D0E946F04CF5FF8019085C917B0F337
S113034001C080E0CF911F910F9108950F931F93E7
S1130350CF93DF93009709F45AC06A3008F059C06C
S1130360162FEC018885843099F08730B1F053C0A2
S1130370612F70E0002E02C0759567950A94E2F72C
S11303806170CE01800F911D0E94D8030F5F02C0DF
S113039000E081E0043060F33FC08F818823A9F03E
S11303A019C0E12FF0E0E257FF4F608170E0002EAA
S11303B002C0759567950A94E2F76170CE01800FCB
S11303C0911D0E94D8030F5F02C000E081E0073056
S11303D040F322C08130B1F080E01EC0E12FF0E094
S11303E0E856FF4F608170E0002E02C07595679556
S11303F00A94E2F76170CE01800F911D0E94D80328
S11304000F5F02C000E081E0073040F305C080E0E8
S113041003C080E001C080E0DF91CF911F910F9174
S113042008956091A8006F5F6093A80082E690E051
S11304300E94A601809375008091A6008130D1F1BD
S113044020F0823009F479C09BC082E790E00E94DA
S11304502B01809375008FE690E00E942B0180931E
S1130460750081E790E00E94F2008093750080E7B8
S113047090E00E94F200809375008091A80085307E
S113048009F07EC01092A50081E08093A60082E767
S113049090E00E94F200809375008091A700813063
S11304A031F48FE690E00E94F20080937500109280
S11304B0A80066C081E790E00E942B01809375003C
S11304C083E790E00E942B018093750082E790E01F
S11304D00E946401809375008091A700813031F4FB
S11304E08FE690E00E946401809375008091A500DE
S11304F0813051F48091A700813031F480E790E09D
S11305000E942B01809375008091A8008530C1F56D
S11305108EE690E00E942B01809375008091A500E7
S1130520811104C082E08093A60004C0813011F4DC
S11305301092A6001092A80023C082E790E00E94C7
S11305402B018093750080E790E00E942B0180933B
S1130550750083E790E00E94F200809375008EE6B8
S113056090E00E94F200809375008091A80085308D
S113057039F481E08093A5008093A6001092A8002E
S11305808091A700813061F48091A600823041F40B
S11305901092A70080E690E00E94D6048093750034
S11305A008950E944900789481E690E00E943905FC
S11305B08093750080E690E00E94D60480937500D5
S11305C00E94110262EA70E08BE690E00E948E00C5
S11305D0809375008091A200813051F48091A30032
S11305E09091A40001969093A4008093A30007C067
S11305F081E0809374001092A4001092A300809173
S1130600A3009091A40081159A4F11F410927400E4
S11306108091A9009091AA00809739F41092AA00C1
S11306201092A90081E08093AB008091AB008130EF
S113063049F61092AB000E941102C4CF1F920F9290
S11306400FB60F9211242F933F934F935F936F93A1
S11306507F938F939F93AF93BF93EF93FF93809177
S1130660A9009091AA0001969093AA008093A900F2
S11306706AE081E690E00E943205FF91EF91BF911C
S1130680AF919F918F917F916F915F914F913F9126
S11306902F910F900FBE0F901F9018951F920F92DD
S11306A00FB60F9211242F933F934F935F936F9341
S11306B07F938F939F93AF93BF93EF93FF93809117
S11306C074008130F1F480E690E00E94E9048093A4
S11306D075008091A600811103C01092A8000EC07D
S11306E0813019F48093A50009C0823039F481E087
S11306F08093A6008093A5001092A80081E08093C7
S1130700A700FF91EF91BF91AF919F918F917F913E
S11307106F915F914F913F912F910F900FBE0F906A
S11307201F9018950097F1F1FC012081277030E0AB
S113073024303105CCF54081469546954695477061
S1130740808186FB992790F986FF03C09130B1F030
S11307502DC0220F331FF901EA57FF4F0190F0819A
S1130760E02D208181E090E002C0880F991F4A9516
S1130770E2F780958223808381E00895220F331F5E
S1130780F901EA57FF4F0190F081E02D208181E0CB
S113079090E002C0880F991F4A95E2F7822B80836C
S11307A081E0089580E0089580E0089580E0089550
S11307B00097F1F1FC012081277030E024303105ED
S11307C0CCF580818695869586958770662319F089
S11307D06130C1F031C0220F331FF901E258FF4FDD
S11307E00190F081E02D408121E030E0B90102C0A8
S11307F0660F771F8A95E2F7CB0180958423808367
S113080081E00895220F331FF901E258FF4F019050
S1130810F081E02D408121E030E0B90102C0660F93
S1130820771F8A95E2F7CB01842B808381E00895BA
S113083080E0089580E0089580E00895009701F134
S1130840FC012081277030E024303105DCF4408144
S11308504695469546954770220F331FF901E25895
S1130860FF4F0190F081E02D208181E090E002C0F3
S1130870880F991F4A95E2F78227808381E00895C3
S113088080E0089580E00895009719F161157105DD
S113089011F1FC012081277030E024303105ECF4A3
S11308A040814695469546954770220F331FF901BE
S11308B0EA58FF4F0190F081E02D808190E002C062
S11308C0959587954A95E2F78170FB01808381E0D5
S11308D0089580E0089580E0089580E00895CF931E
S11308E0DF93EC010E949203882339F0688167FB4F
S11308F0662760F9CE010E94D803DF91CF91089555
S1130900FC01892B09F44EC0789490819F73963032
S113091031F09730F9F0953009F046C036C0808147
S113092086FF04C085B7816085BF03C085B78E7F0D
S113093085BF80818295869586958370827029F023
S113094085B7826085BF81E0089585B78D7F85BFB7
S113095081E00895808186FF04C085B7846085BFE7
S113096003C085B78B7F85BF8081829586958695E8
S11309708370827029F085B7886085BF81E008950F
S113098085B7877F85BF81E00895808186FF05C094
S113099084B7806484BF81E0089584B78F7B84BF6B
S11309A081E0089580E0089580E00895009779F04B
S11309B03BB7FC0120812F7381E090E002C0880FD7
S11309C0991F2A95E2F7832B8BBF81E0089580E07D
S11309D00895009781F02BB7FC0130813F7381E0CB
S11309E090E002C0880F991F3A95E2F78095822320
S11309F08BBF81E0089580E00895FC01892B81F18B
S1130A008081837080FF04C083B7806483BF03C088
S1130A1083B78F7B83BF808181FF04C083B78860E5
S1130A2083BF03C083B7877F83BF80818295869508
S1130A308770837080FF04C089B7816089BF03C059
S1130A4089B78E7F89BF808186FF04C089B78260A1
S1130A5089BF03C089B78D7F89BF62BF81E00895D4
S1130A6080E00895892B19F062BF81E0089580E049
S1130A700895FC01892B19F19081969596959770AC
S1130A8081E090FF04C093B7916093BF03C093B714
S1130A909E7F93BF908193FF04C093B7926093BFEE
S1130AA003C093B79D7F93BF908194FF04C093B715
S1130AB0946093BF089593B79B7F93BF089580E09C
S1090AC00895F894FFCF35
S1130AC68634424A525A00000001041301009189F7
S1130AD681908880010139003600330030003B00E4
S1130AE63800350032003A003700340031004079CE
S1130AF624301912027800183F065B4F666D7D0795
S1050B067F6703
S9030000FC
